:100000000C942A000C9434000C9434000C943400AA
:100010000C9434000C9434000C9434000C94340090
:100020000C9434000C9434000C9434000C94340080
:100030000C9434000C9434000C9434000C94340070
:100040000C9434000C9434000C9434000C94340060
:100050000C94340011241FBECFE5D8E0DEBFCDBF25
:100060000E9436000C9445000C940000BC9A90E16C
:1000700088B3892788BB2FEF35EE8AEA21503040BC
:0E0080008040E1F700C00000F3CFF894FFCFFE
:00000001FF
